{
  "_format": "hh-sol-artifact-1",
  "contractName": "CastChainAchievement",
  "sourceName": "contracts/Achievement.sol",
  "abi": [
    {
      "inputs": [],
      "stateMutability": "nonpayable",
      "type": "constructor"
    },
    {
      "anonymous": false,
      "inputs": [
        {
          "indexed": true,
          "internalType": "address",
          "name": "recipient",
          "type": "address"
        },
        {
          "indexed": true,
          "internalType": "uint256",
          "name": "tokenId",
          "type": "uint256"
        },
        {
          "indexed": false,
          "internalType": "enum CastChainAchievement.AchievementType",
          "name": "achievementType",
          "type": "uint8"
        },
        {
          "indexed": false,
          "internalType": "uint256",
          "name": "narrativeId",
          "type": "uint256"
        }
      ],
      "name": "AchievementMinted",
      "type": "event"
    },
    {
      "anonymous": false,
      "inputs": [
        {
          "indexed": true,
          "internalType": "address",
          "name": "owner",
          "type": "address"
        },
        {
          "indexed": true,
          "internalType": "address",
          "name": "approved",
          "type": "address"
        },
        {
          "indexed": true,
          "internalType": "uint256",
          "name": "tokenId",
          "type": "uint256"
        }
      ],
      "name": "Approval",
      "type": "event"
    },
    {
      "anonymous": false,
      "inputs": [
        {
          "indexed": true,
          "internalType": "address",
          "name": "owner",
          "type": "address"
        },
        {
          "indexed": true,
          "internalType": "address",
          "name": "operator",
          "type": "address"
        },
        {
          "indexed": false,
          "internalType": "bool",
          "name": "approved",
          "type": "bool"
        }
      ],
      "name": "ApprovalForAll",
      "type": "event"
    },
    {
      "anonymous": false,
      "inputs": [
        {
          "indexed": true,
          "internalType": "address",
          "name": "previousOwner",
          "type": "address"
        },
        {
          "indexed": true,
          "internalType": "address",
          "name": "newOwner",
          "type": "address"
        }
      ],
      "name": "OwnershipTransferred",
      "type": "event"
    },
    {
      "anonymous": false,
      "inputs": [
        {
          "indexed": true,
          "internalType": "address",
          "name": "from",
          "type": "address"
        },
        {
          "indexed": true,
          "internalType": "address",
          "name": "to",
          "type": "address"
        },
        {
          "indexed": true,
          "internalType": "uint256",
          "name": "tokenId",
          "type": "uint256"
        }
      ],
      "name": "Transfer",
      "type": "event"
    },
    {
      "inputs": [
        {
          "internalType": "uint256",
          "name": "",
          "type": "uint256"
        }
      ],
      "name": "achievements",
      "outputs": [
        {
          "internalType": "enum CastChainAchievement.AchievementType",
          "name": "achievementType",
          "type": "uint8"
        },
        {
          "internalType": "string",
          "name": "metadataURI",
          "type": "string"
        },
        {
          "internalType": "uint256",
          "name": "narrativeId",
          "type": "uint256"
        },
        {
          "internalType": "bool",
          "name": "soulbound",
          "type": "bool"
        }
      ],
      "stateMutability": "view",
      "type": "function"
    },
    {
      "inputs": [
        {
          "internalType": "address",
          "name": "minter",
          "type": "address"
        }
      ],
      "name": "addMinter",
      "outputs": [],
      "stateMutability": "nonpayable",
      "type": "function"
    },
    {
      "inputs": [
        {
          "internalType": "address",
          "name": "to",
          "type": "address"
        },
        {
          "internalType": "uint256",
          "name": "tokenId",
          "type": "uint256"
        }
      ],
      "name": "approve",
      "outputs": [],
      "stateMutability": "nonpayable",
      "type": "function"
    },
    {
      "inputs": [
        {
          "internalType": "address",
          "name": "",
          "type": "address"
        }
      ],
      "name": "authorizedMinters",
      "outputs": [
        {
          "internalType": "bool",
          "name": "",
          "type": "bool"
        }
      ],
      "stateMutability": "view",
      "type": "function"
    },
    {
      "inputs": [
        {
          "internalType": "address",
          "name": "owner",
          "type": "address"
        }
      ],
      "name": "balanceOf",
      "outputs": [
        {
          "internalType": "uint256",
          "name": "",
          "type": "uint256"
        }
      ],
      "stateMutability": "view",
      "type": "function"
    },
    {
      "inputs": [
        {
          "internalType": "uint256",
          "name": "tokenId",
          "type": "uint256"
        }
      ],
      "name": "getAchievementType",
      "outputs": [
        {
          "internalType": "enum CastChainAchievement.AchievementType",
          "name": "",
          "type": "uint8"
        }
      ],
      "stateMutability": "view",
      "type": "function"
    },
    {
      "inputs": [
        {
          "internalType": "address",
          "name": "owner",
          "type": "address"
        }
      ],
      "name": "getAchievementsOfOwner",
      "outputs": [
        {
          "internalType": "uint256[]",
          "name": "",
          "type": "uint256[]"
        }
      ],
      "stateMutability": "view",
      "type": "function"
    },
    {
      "inputs": [
        {
          "internalType": "uint256",
          "name": "tokenId",
          "type": "uint256"
        }
      ],
      "name": "getApproved",
      "outputs": [
        {
          "internalType": "address",
          "name": "",
          "type": "address"
        }
      ],
      "stateMutability": "view",
      "type": "function"
    },
    {
      "inputs": [
        {
          "internalType": "address",
          "name": "owner",
          "type": "address"
        },
        {
          "internalType": "address",
          "name": "operator",
          "type": "address"
        }
      ],
      "name": "isApprovedForAll",
      "outputs": [
        {
          "internalType": "bool",
          "name": "",
          "type": "bool"
        }
      ],
      "stateMutability": "view",
      "type": "function"
    },
    {
      "inputs": [
        {
          "internalType": "uint256",
          "name": "tokenId",
          "type": "uint256"
        }
      ],
      "name": "isSoulbound",
      "outputs": [
        {
          "internalType": "bool",
          "name": "",
          "type": "bool"
        }
      ],
      "stateMutability": "view",
      "type": "function"
    },
    {
      "inputs": [
        {
          "internalType": "address",
          "name": "recipient",
          "type": "address"
        },
        {
          "internalType": "enum CastChainAchievement.AchievementType",
          "name": "achievementType",
          "type": "uint8"
        },
        {
          "internalType": "string",
          "name": "metadataURI",
          "type": "string"
        },
        {
          "internalType": "uint256",
          "name": "narrativeId",
          "type": "uint256"
        },
        {
          "internalType": "bool",
          "name": "soulbound",
          "type": "bool"
        }
      ],
      "name": "mintAchievement",
      "outputs": [
        {
          "internalType": "uint256",
          "name": "",
          "type": "uint256"
        }
      ],
      "stateMutability": "nonpayable",
      "type": "function"
    },
    {
      "inputs": [],
      "name": "name",
      "outputs": [
        {
          "internalType": "string",
          "name": "",
          "type": "string"
        }
      ],
      "stateMutability": "view",
      "type": "function"
    },
    {
      "inputs": [],
      "name": "owner",
      "outputs": [
        {
          "internalType": "address",
          "name": "",
          "type": "address"
        }
      ],
      "stateMutability": "view",
      "type": "function"
    },
    {
      "inputs": [
        {
          "internalType": "uint256",
          "name": "tokenId",
          "type": "uint256"
        }
      ],
      "name": "ownerOf",
      "outputs": [
        {
          "internalType": "address",
          "name": "",
          "type": "address"
        }
      ],
      "stateMutability": "view",
      "type": "function"
    },
    {
      "inputs": [
        {
          "internalType": "address",
          "name": "minter",
          "type": "address"
        }
      ],
      "name": "removeMinter",
      "outputs": [],
      "stateMutability": "nonpayable",
      "type": "function"
    },
    {
      "inputs": [],
      "name": "renounceOwnership",
      "outputs": [],
      "stateMutability": "nonpayable",
      "type": "function"
    },
    {
      "inputs": [
        {
          "internalType": "address",
          "name": "from",
          "type": "address"
        },
        {
          "internalType": "address",
          "name": "to",
          "type": "address"
        },
        {
          "internalType": "uint256",
          "name": "tokenId",
          "type": "uint256"
        }
      ],
      "name": "safeTransferFrom",
      "outputs": [],
      "stateMutability": "nonpayable",
      "type": "function"
    },
    {
      "inputs": [
        {
          "internalType": "address",
          "name": "from",
          "type": "address"
        },
        {
          "internalType": "address",
          "name": "to",
          "type": "address"
        },
        {
          "internalType": "uint256",
          "name": "tokenId",
          "type": "uint256"
        },
        {
          "internalType": "bytes",
          "name": "data",
          "type": "bytes"
        }
      ],
      "name": "safeTransferFrom",
      "outputs": [],
      "stateMutability": "nonpayable",
      "type": "function"
    },
    {
      "inputs": [
        {
          "internalType": "address",
          "name": "operator",
          "type": "address"
        },
        {
          "internalType": "bool",
          "name": "approved",
          "type": "bool"
        }
      ],
      "name": "setApprovalForAll",
      "outputs": [],
      "stateMutability": "nonpayable",
      "type": "function"
    },
    {
      "inputs": [
        {
          "internalType": "uint256",
          "name": "tokenId",
          "type": "uint256"
        },
        {
          "internalType": "string",
          "name": "metadataURI",
          "type": "string"
        }
      ],
      "name": "setTokenURI",
      "outputs": [],
      "stateMutability": "nonpayable",
      "type": "function"
    },
    {
      "inputs": [
        {
          "internalType": "bytes4",
          "name": "interfaceId",
          "type": "bytes4"
        }
      ],
      "name": "supportsInterface",
      "outputs": [
        {
          "internalType": "bool",
          "name": "",
          "type": "bool"
        }
      ],
      "stateMutability": "view",
      "type": "function"
    },
    {
      "inputs": [],
      "name": "symbol",
      "outputs": [
        {
          "internalType": "string",
          "name": "",
          "type": "string"
        }
      ],
      "stateMutability": "view",
      "type": "function"
    },
    {
      "inputs": [
        {
          "internalType": "uint256",
          "name": "index",
          "type": "uint256"
        }
      ],
      "name": "tokenByIndex",
      "outputs": [
        {
          "internalType": "uint256",
          "name": "",
          "type": "uint256"
        }
      ],
      "stateMutability": "view",
      "type": "function"
    },
    {
      "inputs": [
        {
          "internalType": "address",
          "name": "owner",
          "type": "address"
        },
        {
          "internalType": "uint256",
          "name": "index",
          "type": "uint256"
        }
      ],
      "name": "tokenOfOwnerByIndex",
      "outputs": [
        {
          "internalType": "uint256",
          "name": "",
          "type": "uint256"
        }
      ],
      "stateMutability": "view",
      "type": "function"
    },
    {
      "inputs": [
        {
          "internalType": "uint256",
          "name": "tokenId",
          "type": "uint256"
        }
      ],
      "name": "tokenURI",
      "outputs": [
        {
          "internalType": "string",
          "name": "",
          "type": "string"
        }
      ],
      "stateMutability": "view",
      "type": "function"
    },
    {
      "inputs": [],
      "name": "totalSupply",
      "outputs": [
        {
          "internalType": "uint256",
          "name": "",
          "type": "uint256"
        }
      ],
      "stateMutability": "view",
      "type": "function"
    },
    {
      "inputs": [
        {
          "internalType": "address",
          "name": "from",
          "type": "address"
        },
        {
          "internalType": "address",
          "name": "to",
          "type": "address"
        },
        {
          "internalType": "uint256",
          "name": "tokenId",
          "type": "uint256"
        }
      ],
      "name": "transferFrom",
      "outputs": [],
      "stateMutability": "nonpayable",
      "type": "function"
    },
    {
      "inputs": [
        {
          "internalType": "address",
          "name": "newOwner",
          "type": "address"
        }
      ],
      "name": "transferOwnership",
      "outputs": [],
      "stateMutability": "nonpayable",
      "type": "function"
    }
  ],
  "bytecode": "0x60806040523480156200001157600080fd5b506040518060400160405280601581526020017f43617374436861696e20416368696576656d656e7400000000000000000000008152506040518060400160405280600381526020017f434341000000000000000000000000000000000000000000000000000000000081525081600090816200008f91906200046a565b508060019081620000a191906200046a565b505050620000c4620000b86200012260201b60201c565b6200012a60201b60201c565b6001600d60003373ffffffffffffffffffffffffffffffffffffffff1673ffffffffffffffffffffffffffffffffffffffff16815260200190815260200160002060006101000a81548160ff02191690831515021790555062000551565b600033905090565b6000600a60009054906101000a900473ffffffffffffffffffffffffffffffffffffffff16905081600a60006101000a81548173ffffffffffffffffffffffffffffffffffffffff021916908373ffffffffffffffffffffffffffffffffffffffff1602179055508173ffffffffffffffffffffffffffffffffffffffff168173ffffffffffffffffffffffffffffffffffffffff167f8be0079c531659141344cd1fd0a4f28419497f9722a3daafe3b4186f6b6457e060405160405180910390a35050565b600081519050919050565b7f4e487b7100000000000000000000000000000000000000000000000000000000600052604160045260246000fd5b7f4e487b7100000000000000000000000000000000000000000000000000000000600052602260045260246000fd5b600060028204905060018216806200027257607f821691505b6020821081036200028857620002876200022a565b5b50919050565b60008190508160005260206000209050919050565b60006020601f8301049050919050565b600082821b905092915050565b600060088302620002f27fffffffffffffffffffffffffffffffffffffffffffffffffffffffffffffffff82620002b3565b620002fe8683620002b3565b95508019841693508086168417925050509392505050565b6000819050919050565b6000819050919050565b60006200034b620003456200033f8462000316565b62000320565b62000316565b9050919050565b6000819050919050565b62000367836200032a565b6200037f620003768262000352565b848454620002c0565b825550505050565b600090565b6200039662000387565b620003a38184846200035c565b505050565b5b81811015620003cb57620003bf6000826200038c565b600181019050620003a9565b5050565b601f8211156200041a57620003e4816200028e565b620003ef84620002a3565b81016020851015620003ff578190505b620004176200040e85620002a3565b830182620003a8565b50505b505050565b600082821c905092915050565b60006200043f600019846008026200041f565b1980831691505092915050565b60006200045a83836200042c565b9150826002028217905092915050565b6200047582620001f0565b67ffffffffffffffff811115620004915762000490620001fb565b5b6200049d825462000259565b620004aa828285620003cf565b600060209050601f831160018114620004e25760008415620004cd578287015190505b620004d985826200044c565b86555062000549565b601f198416620004f2866200028e565b60005b828110156200051c57848901518255600182019150602085019450602081019050620004f5565b868310156200053c578489015162000538601f8916826200042c565b8355505b6001600288020188555050505b505050505050565b61410280620005616000396000f3fe608060405234801561001057600080fd5b50600436106101c45760003560e01c80636352211e116100f9578063983b2d5611610097578063b88d4fde11610071578063b88d4fde14610552578063c87b56dd1461056e578063e985e9c51461059e578063f2fde38b146105ce576101c4565b8063983b2d56146104ea578063a22cb46514610506578063aa2fe91b14610522576101c4565b8063715018a6116100d3578063715018a6146104745780638da5cb5b1461047e578063911ec4701461049c57806395d89b41146104cc576101c4565b80636352211e146103e45780636e0e1eee1461041457806370a0823114610444576101c4565b806323b872dd116101665780632f745c59116101405780632f745c591461034c5780633092afd51461037c57806342842e0e146103985780634f6ccce7146103b4576101c4565b806323b872dd146102cd578063270be72b146102e957806327aed72e14610319576101c4565b8063081812fc116101a2578063081812fc14610247578063095ea7b314610277578063162094c41461029357806318160ddd146102af576101c4565b806301ffc9a7146101c957806303251df4146101f957806306fdde0314610229575b600080fd5b6101e360048036038101906101de9190612870565b6105ea565b6040516101f091906128b8565b60405180910390f35b610213600480360381019061020e9190612931565b610664565b6040516102209190612a26565b60405180910390f35b610231610712565b60405161023e9190612ad8565b60405180910390f35b610261600480360381019061025c9190612b26565b6107a4565b60405161026e9190612b62565b60405180910390f35b610291600480360381019061028c9190612b7d565b6107ea565b005b6102ad60048036038101906102a89190612cf2565b610901565b005b6102b7610a3a565b6040516102c49190612d5d565b60405180910390f35b6102e760048036038101906102e29190612d78565b610a47565b005b61030360048036038101906102fe9190612e1c565b610aa7565b6040516103109190612d5d565b60405180910390f35b610333600480360381019061032e9190612b26565b610cad565b6040516103439493929190612f2a565b60405180910390f35b61036660048036038101906103619190612b7d565b610d7f565b6040516103739190612d5d565b60405180910390f35b61039660048036038101906103919190612931565b610e24565b005b6103b260048036038101906103ad9190612d78565b610e87565b005b6103ce60048036038101906103c99190612b26565b610ea7565b6040516103db9190612d5d565b60405180910390f35b6103fe60048036038101906103f99190612b26565b610f18565b60405161040b9190612b62565b60405180910390f35b61042e60048036038101906104299190612b26565b610f9e565b60405161043b9190612f76565b60405180910390f35b61045e60048036038101906104599190612931565b611013565b60405161046b9190612d5d565b60405180910390f35b61047c6110ca565b005b6104866110de565b6040516104939190612b62565b60405180910390f35b6104b660048036038101906104b19190612b26565b611108565b6040516104c391906128b8565b60405180910390f35b6104d461117d565b6040516104e19190612ad8565b60405180910390f35b61050460048036038101906104ff9190612931565b61120f565b005b610520600480360381019061051b9190612f91565b611272565b005b61053c60048036038101906105379190612931565b611288565b60405161054991906128b8565b60405180910390f35b61056c60048036038101906105679190613072565b6112a8565b005b61058860048036038101906105839190612b26565b61130a565b6040516105959190612ad8565b60405180910390f35b6105b860048036038101906105b391906130f5565b6113fa565b6040516105c591906128b8565b60405180910390f35b6105e860048036038101906105e39190612931565b61148e565b005b60007f780e9d63000000000000000000000000000000000000000000000000000000007bffffffffffffffffffffffffffffffffffffffffffffffffffffffff1916827bffffffffffffffffffffffffffffffffffffffffffffffffffffffff1916148061065d575061065c82611511565b5b9050919050565b6060600061067183611013565b905060008167ffffffffffffffff81111561068f5761068e612bc7565b5b6040519080825280602002602001820160405280156106bd5781602001602082028036833780820191505090505b50905060005b82811015610707576106d58582610d7f565b8282815181106106e8576106e7613135565b5b60200260200101818152505080806106ff90613193565b9150506106c3565b508092505050919050565b6060600080546107219061320a565b80601f016020809104026020016040519081016040528092919081815260200182805461074d9061320a565b801561079a5780601f1061076f5761010080835404028352916020019161079a565b820191906000526020600020905b81548152906001019060200180831161077d57829003601f168201915b5050505050905090565b60006107af826115f3565b6004600083815260200190815260200160002060009054906101000a900473ffffffffffffffffffffffffffffffffffffffff169050919050565b60006107f582610f18565b90508073ffffffffffffffffffffffffffffffffffffffff168373ffffffffffffffffffffffffffffffffffffffff1603610865576040517f08c379a000000000000000000000000000000000000000000000000000000000815260040161085c906132ad565b60405180910390fd5b8073ffffffffffffffffffffffffffffffffffffffff1661088461163e565b73ffffffffffffffffffffffffffffffffffffffff1614806108b357506108b2816108ad61163e565b6113fa565b5b6108f2576040517f08c379a00000000000000000000000000000000000000000000000000000000081526004016108e99061333f565b60405180910390fd5b6108fc8383611646565b505050565b600d60003373ffffffffffffffffffffffffffffffffffffffff1673ffffffffffffffffffffffffffffffffffffffff16815260200190815260200160002060009054906101000a900460ff168061098b57503373ffffffffffffffffffffffffffffffffffffffff166109736110de565b73ffffffffffffffffffffffffffffffffffffffff16145b6109ca576040517f08c379a00000000000000000000000000000000000000000000000000000000081526004016109c1906133ab565b60405180910390fd5b6109d3826116ff565b610a12576040517f08c379a0000000000000000000000000000000000000000000000000000000008152600401610a0990613417565b60405180910390fd5b80600c60008481526020019081526020016000206001019081610a3591906135e3565b505050565b6000600880549050905090565b610a58610a5261163e565b82611740565b610a97576040517f08c379a0000000000000000000000000000000000000000000000000000000008152600401610a8e90613727565b60405180910390fd5b610aa28383836117d5565b505050565b6000600d60003373ffffffffffffffffffffffffffffffffffffffff1673ffffffffffffffffffffffffffffffffffffffff16815260200190815260200160002060009054906101000a900460ff1680610b3357503373ffffffffffffffffffffffffffffffffffffffff16610b1b6110de565b73ffffffffffffffffffffffffffffffffffffffff16145b610b72576040517f08c379a0000000000000000000000000000000000000000000000000000000008152600401610b69906133ab565b60405180910390fd5b610b7c600b611ace565b6000610b88600b611ae4565b9050610b948782611af2565b6040518060800160405280876002811115610bb257610bb1612eb3565b5b8152602001868152602001858152602001841515815250600c600083815260200190815260200160002060008201518160000160006101000a81548160ff02191690836002811115610c0757610c06612eb3565b5b02179055506020820151816001019081610c2191906135e3565b506040820151816002015560608201518160030160006101000a81548160ff021916908315150217905550905050808773ffffffffffffffffffffffffffffffffffffffff167f0cbf158270f398be75f795eca2e8ef6a7d7e34b77593094be88beb257eebd5b38887604051610c98929190613747565b60405180910390a38091505095945050505050565b600c6020528060005260406000206000915090508060000160009054906101000a900460ff1690806001018054610ce39061320a565b80601f0160208091040260200160405190810160405280929190818152602001828054610d0f9061320a565b8015610d5c5780601f10610d3157610100808354040283529160200191610d5c565b820191906000526020600020905b815481529060010190602001808311610d3f57829003601f168201915b5050505050908060020154908060030160009054906101000a900460ff16905084565b6000610d8a83611013565b8210610dcb576040517f08c379a0000000000000000000000000000000000000000000000000000000008152600401610dc2906137e2565b60405180910390fd5b600660008473ffffffffffffffffffffffffffffffffffffffff1673ffffffffffffffffffffffffffffffffffffffff168152602001908152602001600020600083815260200190815260200160002054905092915050565b610e2c611b10565b6000600d60008373ffffffffffffffffffffffffffffffffffffffff1673ffffffffffffffffffffffffffffffffffffffff16815260200190815260200160002060006101000a81548160ff02191690831515021790555050565b610ea2838383604051806020016040528060008152506112a8565b505050565b6000610eb1610a3a565b8210610ef2576040517f08c379a0000000000000000000000000000000000000000000000000000000008152600401610ee990613874565b60405180910390fd5b60088281548110610f0657610f05613135565b5b90600052602060002001549050919050565b600080610f2483611b8e565b9050600073ffffffffffffffffffffffffffffffffffffffff168173ffffffffffffffffffffffffffffffffffffffff1603610f95576040517f08c379a0000000000000000000000000000000000000000000000000000000008152600401610f8c906138e0565b60405180910390fd5b80915050919050565b6000610fa9826116ff565b610fe8576040517f08c379a0000000000000000000000000000000000000000000000000000000008152600401610fdf9061394c565b60405180910390fd5b600c600083815260200190815260200160002060000160009054906101000a900460ff169050919050565b60008073ffffffffffffffffffffffffffffffffffffffff168273ffffffffffffffffffffffffffffffffffffffff1603611083576040517f08c379a000000000000000000000000000000000000000000000000000000000815260040161107a906139de565b60405180910390fd5b600360008373ffffffffffffffffffffffffffffffffffffffff1673ffffffffffffffffffffffffffffffffffffffff168152602001908152602001600020549050919050565b6110d2611b10565b6110dc6000611bcb565b565b6000600a60009054906101000a900473ffffffffffffffffffffffffffffffffffffffff16905090565b6000611113826116ff565b611152576040517f08c379a00000000000000000000000000000000000000000000000000000000081526004016111499061394c565b60405180910390fd5b600c600083815260200190815260200160002060030160009054906101000a900460ff169050919050565b60606001805461118c9061320a565b80601f01602080910402602001604051908101604052809291908181526020018280546111b89061320a565b80156112055780601f106111da57610100808354040283529160200191611205565b820191906000526020600020905b8154815290600101906020018083116111e857829003601f168201915b5050505050905090565b611217611b10565b6001600d60008373ffffffffffffffffffffffffffffffffffffffff1673ffffffffffffffffffffffffffffffffffffffff16815260200190815260200160002060006101000a81548160ff02191690831515021790555050565b61128461127d61163e565b8383611c91565b5050565b600d6020528060005260406000206000915054906101000a900460ff1681565b6112b96112b361163e565b83611740565b6112f8576040517f08c379a00000000000000000000000000000000000000000000000000000000081526004016112ef90613727565b60405180910390fd5b61130484848484611dfd565b50505050565b6060611315826116ff565b611354576040517f08c379a000000000000000000000000000000000000000000000000000000000815260040161134b90613a4a565b60405180910390fd5b600c600083815260200190815260200160002060010180546113759061320a565b80601f01602080910402602001604051908101604052809291908181526020018280546113a19061320a565b80156113ee5780601f106113c3576101008083540402835291602001916113ee565b820191906000526020600020905b8154815290600101906020018083116113d157829003601f168201915b50505050509050919050565b6000600560008473ffffffffffffffffffffffffffffffffffffffff1673ffffffffffffffffffffffffffffffffffffffff16815260200190815260200160002060008373ffffffffffffffffffffffffffffffffffffffff1673ffffffffffffffffffffffffffffffffffffffff16815260200190815260200160002060009054906101000a900460ff16905092915050565b611496611b10565b600073ffffffffffffffffffffffffffffffffffffffff168173ffffffffffffffffffffffffffffffffffffffff1603611505576040517f08c379a00000000000000000000000000000000000000000000000000000000081526004016114fc90613adc565b60405180910390fd5b61150e81611bcb565b50565b60007f80ac58cd000000000000000000000000000000000000000000000000000000007bffffffffffffffffffffffffffffffffffffffffffffffffffffffff1916827bffffffffffffffffffffffffffffffffffffffffffffffffffffffff191614806115dc57507f5b5e139f000000000000000000000000000000000000000000000000000000007bffffffffffffffffffffffffffffffffffffffffffffffffffffffff1916827bffffffffffffffffffffffffffffffffffffffffffffffffffffffff1916145b806115ec57506115eb82611e59565b5b9050919050565b6115fc816116ff565b61163b576040517f08c379a0000000000000000000000000000000000000000000000000000000008152600401611632906138e0565b60405180910390fd5b50565b600033905090565b816004600083815260200190815260200160002060006101000a81548173ffffffffffffffffffffffffffffffffffffffff021916908373ffffffffffffffffffffffffffffffffffffffff160217905550808273ffffffffffffffffffffffffffffffffffffffff166116b983610f18565b73ffffffffffffffffffffffffffffffffffffffff167f8c5be1e5ebec7d5bd14f71427d1e84f3dd0314c0f7b2291e5b200ac8c7c3b92560405160405180910390a45050565b60008073ffffffffffffffffffffffffffffffffffffffff1661172183611b8e565b73ffffffffffffffffffffffffffffffffffffffff1614159050919050565b60008061174c83610f18565b90508073ffffffffffffffffffffffffffffffffffffffff168473ffffffffffffffffffffffffffffffffffffffff16148061178e575061178d81856113fa565b5b806117cc57508373ffffffffffffffffffffffffffffffffffffffff166117b4846107a4565b73ffffffffffffffffffffffffffffffffffffffff16145b91505092915050565b8273ffffffffffffffffffffffffffffffffffffffff166117f582610f18565b73ffffffffffffffffffffffffffffffffffffffff161461184b576040517f08c379a000000000000000000000000000000000000000000000000000000000815260040161184290613b6e565b60405180910390fd5b600073ffffffffffffffffffffffffffffffffffffffff168273ffffffffffffffffffffffffffffffffffffffff16036118ba576040517f08c379a00000000000000000000000000000000000000000000000000000000081526004016118b190613c00565b60405180910390fd5b6118c78383836001611ec3565b8273ffffffffffffffffffffffffffffffffffffffff166118e782610f18565b73ffffffffffffffffffffffffffffffffffffffff161461193d576040517f08c379a000000000000000000000000000000000000000000000000000000000815260040161193490613b6e565b60405180910390fd5b6004600082815260200190815260200160002060006101000a81549073ffffffffffffffffffffffffffffffffffffffff02191690556001600360008573ffffffffffffffffffffffffffffffffffffffff1673ffffffffffffffffffffffffffffffffffffffff168152602001908152602001600020600082825403925050819055506001600360008473ffffffffffffffffffffffffffffffffffffffff1673ffffffffffffffffffffffffffffffffffffffff16815260200190815260200160002060008282540192505081905550816002600083815260200190815260200160002060006101000a81548173ffffffffffffffffffffffffffffffffffffffff021916908373ffffffffffffffffffffffffffffffffffffffff160217905550808273ffffffffffffffffffffffffffffffffffffffff168473ffffffffffffffffffffffffffffffffffffffff167fddf252ad1be2c89b69c2b068fc378daa952ba7f163c4a11628f55a4df523b3ef60405160405180910390a4611ac98383836001611f72565b505050565b6001816000016000828254019250508190555050565b600081600001549050919050565b611b0c828260405180602001604052806000815250611f78565b5050565b611b1861163e565b73ffffffffffffffffffffffffffffffffffffffff16611b366110de565b73ffffffffffffffffffffffffffffffffffffffff1614611b8c576040517f08c379a0000000000000000000000000000000000000000000000000000000008152600401611b8390613c6c565b60405180910390fd5b565b60006002600083815260200190815260200160002060009054906101000a900473ffffffffffffffffffffffffffffffffffffffff169050919050565b6000600a60009054906101000a900473ffffffffffffffffffffffffffffffffffffffff16905081600a60006101000a81548173ffffffffffffffffffffffffffffffffffffffff021916908373ffffffffffffffffffffffffffffffffffffffff1602179055508173ffffffffffffffffffffffffffffffffffffffff168173ffffffffffffffffffffffffffffffffffffffff167f8be0079c531659141344cd1fd0a4f28419497f9722a3daafe3b4186f6b6457e060405160405180910390a35050565b8173ffffffffffffffffffffffffffffffffffffffff168373ffffffffffffffffffffffffffffffffffffffff1603611cff576040517f08c379a0000000000000000000000000000000000000000000000000000000008152600401611cf690613cd8565b60405180910390fd5b80600560008573ffffffffffffffffffffffffffffffffffffffff1673ffffffffffffffffffffffffffffffffffffffff16815260200190815260200160002060008473ffffffffffffffffffffffffffffffffffffffff1673ffffffffffffffffffffffffffffffffffffffff16815260200190815260200160002060006101000a81548160ff0219169083151502179055508173ffffffffffffffffffffffffffffffffffffffff168373ffffffffffffffffffffffffffffffffffffffff167f17307eab39ab6107e8899845ad3d59bd9653f200f220920489ca2b5937696c3183604051611df091906128b8565b60405180910390a3505050565b611e088484846117d5565b611e1484848484611fd3565b611e53576040517f08c379a0000000000000000000000000000000000000000000000000000000008152600401611e4a90613d6a565b60405180910390fd5b50505050565b60007f01ffc9a7000000000000000000000000000000000000000000000000000000007bffffffffffffffffffffffffffffffffffffffffffffffffffffffff1916827bffffffffffffffffffffffffffffffffffffffffffffffffffffffff1916149050919050565b611ecf8484848461215a565b600073ffffffffffffffffffffffffffffffffffffffff168473ffffffffffffffffffffffffffffffffffffffff1614158015611f2c5750600c600083815260200190815260200160002060030160009054906101000a900460ff165b15611f6c576040517f08c379a0000000000000000000000000000000000000000000000000000000008152600401611f6390613dfc565b60405180910390fd5b50505050565b50505050565b611f8283836122b8565b611f8f6000848484611fd3565b611fce576040517f08c379a0000000000000000000000000000000000000000000000000000000008152600401611fc590613d6a565b60405180910390fd5b505050565b6000611ff48473ffffffffffffffffffffffffffffffffffffffff166124d5565b1561214d578373ffffffffffffffffffffffffffffffffffffffff1663150b7a0261201d61163e565b8786866040518563ffffffff1660e01b815260040161203f9493929190613e71565b6020604051808303816000875af192505050801561207b57506040513d601f19601f820116820180604052508101906120789190613ed2565b60015b6120fd573d80600081146120ab576040519150601f19603f3d011682016040523d82523d6000602084013e6120b0565b606091505b5060008151036120f5576040517f08c379a00000000000000000000000000000000000000000000000000000000081526004016120ec90613d6a565b60405180910390fd5b805181602001fd5b63150b7a0260e01b7bffffffffffffffffffffffffffffffffffffffffffffffffffffffff1916817bffffffffffffffffffffffffffffffffffffffffffffffffffffffff191614915050612152565b600190505b949350505050565b612166848484846124f8565b60018111156121aa576040517f08c379a00000000000000000000000000000000000000000000000000000000081526004016121a190613f71565b60405180910390fd5b6000829050600073ffffffffffffffffffffffffffffffffffffffff168573ffffffffffffffffffffffffffffffffffffffff16036121f1576121ec816124fe565b612230565b8373ffffffffffffffffffffffffffffffffffffffff168573ffffffffffffffffffffffffffffffffffffffff161461222f5761222e8582612547565b5b5b600073ffffffffffffffffffffffffffffffffffffffff168473ffffffffffffffffffffffffffffffffffffffff16036122725761226d816126b4565b6122b1565b8473ffffffffffffffffffffffffffffffffffffffff168473ffffffffffffffffffffffffffffffffffffffff16146122b0576122af8482612785565b5b5b5050505050565b600073ffffffffffffffffffffffffffffffffffffffff168273ffffffffffffffffffffffffffffffffffffffff1603612327576040517f08c379a000000000000000000000000000000000000000000000000000000000815260040161231e90613fdd565b60405180910390fd5b612330816116ff565b15612370576040517f08c379a000000000000000000000000000000000000000000000000000000000815260040161236790614049565b60405180910390fd5b61237e600083836001611ec3565b612387816116ff565b156123c7576040517f08c379a00000000000000000000000000000000000000000000000000000000081526004016123be90614049565b60405180910390fd5b6001600360008473ffffffffffffffffffffffffffffffffffffffff1673ffffffffffffffffffffffffffffffffffffffff16815260200190815260200160002060008282540192505081905550816002600083815260200190815260200160002060006101000a81548173ffffffffffffffffffffffffffffffffffffffff021916908373ffffffffffffffffffffffffffffffffffffffff160217905550808273ffffffffffffffffffffffffffffffffffffffff16600073ffffffffffffffffffffffffffffffffffffffff167fddf252ad1be2c89b69c2b068fc378daa952ba7f163c4a11628f55a4df523b3ef60405160405180910390a46124d1600083836001611f72565b5050565b6000808273ffffffffffffffffffffffffffffffffffffffff163b119050919050565b50505050565b6008805490506009600083815260200190815260200160002081905550600881908060018154018082558091505060019003906000526020600020016000909190919091505550565b6000600161255484611013565b61255e9190614069565b9050600060076000848152602001908152602001600020549050818114612643576000600660008673ffffffffffffffffffffffffffffffffffffffff1673ffffffffffffffffffffffffffffffffffffffff168152602001908152602001600020600084815260200190815260200160002054905080600660008773ffffffffffffffffffffffffffffffffffffffff1673ffffffffffffffffffffffffffffffffffffffff168152602001908152602001600020600084815260200190815260200160002081905550816007600083815260200190815260200160002081905550505b6007600084815260200190815260200160002060009055600660008573ffffffffffffffffffffffffffffffffffffffff1673ffffffffffffffffffffffffffffffffffffffff16815260200190815260200160002060008381526020019081526020016000206000905550505050565b600060016008805490506126c89190614069565b90506000600960008481526020019081526020016000205490506000600883815481106126f8576126f7613135565b5b90600052602060002001549050806008838154811061271a57612719613135565b5b9060005260206000200181905550816009600083815260200190815260200160002081905550600960008581526020019081526020016000206000905560088054806127695761276861409d565b5b6001900381819060005260206000200160009055905550505050565b600061279083611013565b905081600660008573ffffffffffffffffffffffffffffffffffffffff1673ffffffffffffffffffffffffffffffffffffffff168152602001908152602001600020600083815260200190815260200160002081905550806007600084815260200190815260200160002081905550505050565b6000604051905090565b600080fd5b600080fd5b60007fffffffff0000000000000000000000000000000000000000000000000000000082169050919050565b61284d81612818565b811461285857600080fd5b50565b60008135905061286a81612844565b92915050565b6000602082840312156128865761288561280e565b5b60006128948482850161285b565b91505092915050565b60008115159050919050565b6128b28161289d565b82525050565b60006020820190506128cd60008301846128a9565b92915050565b600073ffffffffffffffffffffffffffffffffffffffff82169050919050565b60006128fe826128d3565b9050919050565b61290e816128f3565b811461291957600080fd5b50565b60008135905061292b81612905565b92915050565b6000602082840312156129475761294661280e565b5b60006129558482850161291c565b91505092915050565b600081519050919050565b600082825260208201905092915050565b6000819050602082019050919050565b6000819050919050565b61299d8161298a565b82525050565b60006129af8383612994565b60208301905092915050565b6000602082019050919050565b60006129d38261295e565b6129dd8185612969565b93506129e88361297a565b8060005b83811015612a19578151612a0088826129a3565b9750612a0b836129bb565b9250506001810190506129ec565b5085935050505092915050565b60006020820190508181036000830152612a4081846129c8565b905092915050565b600081519050919050565b600082825260208201905092915050565b60005b83811015612a82578082015181840152602081019050612a67565b60008484015250505050565b6000601f19601f8301169050919050565b6000612aaa82612a48565b612ab48185612a53565b9350612ac4818560208601612a64565b612acd81612a8e565b840191505092915050565b60006020820190508181036000830152612af28184612a9f565b905092915050565b612b038161298a565b8114612b0e57600080fd5b50565b600081359050612b2081612afa565b92915050565b600060208284031215612b3c57612b3b61280e565b5b6000612b4a84828501612b11565b91505092915050565b612b5c816128f3565b82525050565b6000602082019050612b776000830184612b53565b92915050565b60008060408385031215612b9457612b9361280e565b5b6000612ba28582860161291c565b9250506020612bb385828601612b11565b9150509250929050565b600080fd5b600080fd5b7f4e487b7100000000000000000000000000000000000000000000000000000000600052604160045260246000fd5b612bff82612a8e565b810181811067ffffffffffffffff82111715612c1e57612c1d612bc7565b5b80604052505050565b6000612c31612804565b9050612c3d8282612bf6565b919050565b600067ffffffffffffffff821115612c5d57612c5c612bc7565b5b612c6682612a8e565b9050602081019050919050565b82818337600083830152505050565b6000612c95612c9084612c42565b612c27565b905082815260208101848484011115612cb157612cb0612bc2565b5b612cbc848285612c73565b509392505050565b600082601f830112612cd957612cd8612bbd565b5b8135612ce9848260208601612c82565b91505092915050565b60008060408385031215612d0957612d0861280e565b5b6000612d1785828601612b11565b925050602083013567ffffffffffffffff811115612d3857612d37612813565b5b612d4485828601612cc4565b9150509250929050565b612d578161298a565b82525050565b6000602082019050612d726000830184612d4e565b92915050565b600080600060608486031215612d9157612d9061280e565b5b6000612d9f8682870161291c565b9350506020612db08682870161291c565b9250506040612dc186828701612b11565b9150509250925092565b60038110612dd857600080fd5b50565b600081359050612dea81612dcb565b92915050565b612df98161289d565b8114612e0457600080fd5b50565b600081359050612e1681612df0565b92915050565b600080600080600060a08688031215612e3857612e3761280e565b5b6000612e468882890161291c565b9550506020612e5788828901612ddb565b945050604086013567ffffffffffffffff811115612e7857612e77612813565b5b612e8488828901612cc4565b9350506060612e9588828901612b11565b9250506080612ea688828901612e07565b9150509295509295909350565b7f4e487b7100000000000000000000000000000000000000000000000000000000600052602160045260246000fd5b60038110612ef357612ef2612eb3565b5b50565b6000819050612f0482612ee2565b919050565b6000612f1482612ef6565b9050919050565b612f2481612f09565b82525050565b6000608082019050612f3f6000830187612f1b565b8181036020830152612f518186612a9f565b9050612f606040830185612d4e565b612f6d60608301846128a9565b95945050505050565b6000602082019050612f8b6000830184612f1b565b92915050565b60008060408385031215612fa857612fa761280e565b5b6000612fb68582860161291c565b9250506020612fc785828601612e07565b9150509250929050565b600067ffffffffffffffff821115612fec57612feb612bc7565b5b612ff582612a8e565b9050602081019050919050565b600061301561301084612fd1565b612c27565b90508281526020810184848401111561303157613030612bc2565b5b61303c848285612c73565b509392505050565b600082601f83011261305957613058612bbd565b5b8135613069848260208601613002565b91505092915050565b6000806000806080858703121561308c5761308b61280e565b5b600061309a8782880161291c565b94505060206130ab8782880161291c565b93505060406130bc87828801612b11565b925050606085013567ffffffffffffffff8111156130dd576130dc612813565b5b6130e987828801613044565b91505092959194509250565b6000806040838503121561310c5761310b61280e565b5b600061311a8582860161291c565b925050602061312b8582860161291c565b9150509250929050565b7f4e487b7100000000000000000000000000000000000000000000000000000000600052603260045260246000fd5b7f4e487b7100000000000000000000000000000000000000000000000000000000600052601160045260246000fd5b600061319e8261298a565b91507fffffffffffffffffffffffffffffffffffffffffffffffffffffffffffffffff82036131d0576131cf613164565b5b600182019050919050565b7f4e487b7100000000000000000000000000000000000000000000000000000000600052602260045260246000fd5b6000600282049050600182168061322257607f821691505b602082108103613235576132346131db565b5b50919050565b7f4552433732313a20617070726f76616c20746f2063757272656e74206f776e6560008201527f7200000000000000000000000000000000000000000000000000000000000000602082015250565b6000613297602183612a53565b91506132a28261323b565b604082019050919050565b600060208201905081810360008301526132c68161328a565b9050919050565b7f4552433732313a20617070726f76652063616c6c6572206973206e6f7420746f60008201527f6b656e206f776e6572206f7220617070726f76656420666f7220616c6c000000602082015250565b6000613329603d83612a53565b9150613334826132cd565b604082019050919050565b600060208201905081810360008301526133588161331c565b9050919050565b7f43616c6c6572206973206e6f7420617574686f72697a65640000000000000000600082015250565b6000613395601883612a53565b91506133a08261335f565b602082019050919050565b600060208201905081810360008301526133c481613388565b9050919050565b7f546f6b656e20646f6573206e6f74206578697374000000000000000000000000600082015250565b6000613401601483612a53565b915061340c826133cb565b602082019050919050565b60006020820190508181036000830152613430816133f4565b9050919050565b60008190508160005260206000209050919050565b60006020601f8301049050919050565b600082821b905092915050565b6000600883026134997fffffffffffffffffffffffffffffffffffffffffffffffffffffffffffffffff8261345c565b6134a3868361345c565b95508019841693508086168417925050509392505050565b6000819050919050565b60006134e06134db6134d68461298a565b6134bb565b61298a565b9050919050565b6000819050919050565b6134fa836134c5565b61350e613506826134e7565b848454613469565b825550505050565b600090565b613523613516565b61352e8184846134f1565b505050565b5b818110156135525761354760008261351b565b600181019050613534565b5050565b601f8211156135975761356881613437565b6135718461344c565b81016020851015613580578190505b61359461358c8561344c565b830182613533565b50505b505050565b600082821c905092915050565b60006135ba6000198460080261359c565b1980831691505092915050565b60006135d383836135a9565b9150826002028217905092915050565b6135ec82612a48565b67ffffffffffffffff81111561360557613604612bc7565b5b61360f825461320a565b61361a828285613556565b600060209050601f83116001811461364d576000841561363b578287015190505b61364585826135c7565b8655506136ad565b601f19841661365b86613437565b60005b828110156136835784890151825560018201915060208501945060208101905061365e565b868310156136a0578489015161369c601f8916826135a9565b8355505b6001600288020188555050505b505050505050565b7f4552433732313a2063616c6c6572206973206e6f7420746f6b656e206f776e6560008201527f72206f7220617070726f76656400000000000000000000000000000000000000602082015250565b6000613711602d83612a53565b915061371c826136b5565b604082019050919050565b6000602082019050818103600083015261374081613704565b9050919050565b600060408201905061375c6000830185612f1b565b6137696020830184612d4e565b9392505050565b7f455243373231456e756d657261626c653a206f776e657220696e646578206f7560008201527f74206f6620626f756e6473000000000000000000000000000000000000000000602082015250565b60006137cc602b83612a53565b91506137d782613770565b604082019050919050565b600060208201905081810360008301526137fb816137bf565b9050919050565b7f455243373231456e756d657261626c653a20676c6f62616c20696e646578206f60008201527f7574206f6620626f756e64730000000000000000000000000000000000000000602082015250565b600061385e602c83612a53565b915061386982613802565b604082019050919050565b6000602082019050818103600083015261388d81613851565b9050919050565b7f4552433732313a20696e76616c696420746f6b656e2049440000000000000000600082015250565b60006138ca601883612a53565b91506138d582613894565b602082019050919050565b600060208201905081810360008301526138f9816138bd565b9050919050565b7f517565727920666f72206e6f6e6578697374656e7420746f6b656e0000000000600082015250565b6000613936601b83612a53565b915061394182613900565b602082019050919050565b6000602082019050818103600083015261396581613929565b9050919050565b7f4552433732313a2061646472657373207a65726f206973206e6f74206120766160008201527f6c6964206f776e65720000000000000000000000000000000000000000000000602082015250565b60006139c8602983612a53565b91506139d38261396c565b604082019050919050565b600060208201905081810360008301526139f7816139bb565b9050919050565b7f55524920717565727920666f72206e6f6e6578697374656e7420746f6b656e00600082015250565b6000613a34601f83612a53565b9150613a3f826139fe565b602082019050919050565b60006020820190508181036000830152613a6381613a27565b9050919050565b7f4f776e61626c653a206e6577206f776e657220697320746865207a65726f206160008201527f6464726573730000000000000000000000000000000000000000000000000000602082015250565b6000613ac6602683612a53565b9150613ad182613a6a565b604082019050919050565b60006020820190508181036000830152613af581613ab9565b9050919050565b7f4552433732313a207472616e736665722066726f6d20696e636f72726563742060008201527f6f776e6572000000000000000000000000000000000000000000000000000000602082015250565b6000613b58602583612a53565b9150613b6382613afc565b604082019050919050565b60006020820190508181036000830152613b8781613b4b565b9050919050565b7f4552433732313a207472616e7366657220746f20746865207a65726f2061646460008201527f7265737300000000000000000000000000000000000000000000000000000000602082015250565b6000613bea602483612a53565b9150613bf582613b8e565b604082019050919050565b60006020820190508181036000830152613c1981613bdd565b9050919050565b7f4f776e61626c653a2063616c6c6572206973206e6f7420746865206f776e6572600082015250565b6000613c56602083612a53565b9150613c6182613c20565b602082019050919050565b60006020820190508181036000830152613c8581613c49565b9050919050565b7f4552433732313a20617070726f766520746f2063616c6c657200000000000000600082015250565b6000613cc2601983612a53565b9150613ccd82613c8c565b602082019050919050565b60006020820190508181036000830152613cf181613cb5565b9050919050565b7f4552433732313a207472616e7366657220746f206e6f6e20455243373231526560008201527f63656976657220696d706c656d656e7465720000000000000000000000000000602082015250565b6000613d54603283612a53565b9150613d5f82613cf8565b604082019050919050565b60006020820190508181036000830152613d8381613d47565b9050919050565b7f5468697320616368696576656d656e7420697320736f756c626f756e6420616e60008201527f642063616e6e6f74206265207472616e73666572726564000000000000000000602082015250565b6000613de6603783612a53565b9150613df182613d8a565b604082019050919050565b60006020820190508181036000830152613e1581613dd9565b9050919050565b600081519050919050565b600082825260208201905092915050565b6000613e4382613e1c565b613e4d8185613e27565b9350613e5d818560208601612a64565b613e6681612a8e565b840191505092915050565b6000608082019050613e866000830187612b53565b613e936020830186612b53565b613ea06040830185612d4e565b8181036060830152613eb28184613e38565b905095945050505050565b600081519050613ecc81612844565b92915050565b600060208284031215613ee857613ee761280e565b5b6000613ef684828501613ebd565b91505092915050565b7f455243373231456e756d657261626c653a20636f6e736563757469766520747260008201527f616e7366657273206e6f7420737570706f727465640000000000000000000000602082015250565b6000613f5b603583612a53565b9150613f6682613eff565b604082019050919050565b60006020820190508181036000830152613f8a81613f4e565b9050919050565b7f4552433732313a206d696e7420746f20746865207a65726f2061646472657373600082015250565b6000613fc7602083612a53565b9150613fd282613f91565b602082019050919050565b60006020820190508181036000830152613ff681613fba565b9050919050565b7f4552433732313a20746f6b656e20616c7265616479206d696e74656400000000600082015250565b6000614033601c83612a53565b915061403e82613ffd565b602082019050919050565b6000602082019050818103600083015261406281614026565b9050919050565b60006140748261298a565b915061407f8361298a565b925082820390508181111561409757614096613164565b5b92915050565b7f4e487b7100000000000000000000000000000000000000000000000000000000600052603160045260246000fdfea2646970667358221220a25106009ddc97a4c05aa16aa18045efc136e0a007e9d828e3329adc2ff61d8e64736f6c63430008130033",
  "linkReferences": {},
  "deployedLinkReferences": {}
}